S01700004763634170706C69636174696F6E312E737265635B
S11300000C942A000C9434000C9434000C943400A6
S11300100C9434000C9434000C9434000C9434008C
S11300200C9434000C9434000C9434000C9434007C
S11300300C9434000C9434000C9434000C9434006C
S11300400C9434000C9434000C9434000C9434005C
S11300500C94340011241FBECFE5D4E0DEBFCDBF25
S11300600E944B000C94A4000C94000083B7896692
S113007083BFBB9A089580E487B987E886B9089559
S113008097B18770987F982B97B9369A3699FECF97
S113009084B195B108950E9436000E943B0081E02E
S11300A084BB1ABA0E94400099230CF403969C0165
S11300B035952795359527958FEF90E0B9010E94E6
S11300C07C00629F802D112480958CBFCFEFD3E0FC
S11300D081E00E944000AE01481B590B9A0112F4C2
S11300E02D5F3F4F35952795359527952CBF81304A
S11300F0924074F3A89AECCF97FB072E16F4009461
S113010007D077FD09D00E94900007FC05D03EF48B
S1130110909581959F4F0895709561957F4F0895AF
S1130120AA1BBB1B51E107C0AA1FBB1FA617B70719
S113013010F0A61BB70B881F991F5A95A9F7809535
S10F01409095BC01CD010895F894FFCF08
S9030000FC
